:020000040800F2
:1000000000000120496E0008A7590008A9590008FE
:10001000AB590008AD590008AF59000800000000B6
:1000200000000000000000000000000071960008C1
:10003000B15900080000000011970008ED97000872
:10004000916E0008916E0008916E0008916E000894
:10005000916E0008916E0008916E0008916E000884
:10006000916E0008916E0008916E0008916E000874
:10007000916E0008916E0008916E0008916E000864
:10008000916E0008916E0008916E0008916E000854
:10009000916E0008916E0008916E0008916E000844
:1000A000916E0008916E0008916E0008916E000834
:1000B000916E0008916E0008916E0008916E000824
:1000C000916E0008916E0008916E0008916E000814
:1000D000916E0008E55B0008916E0008916E0008C3
:1000E000916E0008916E0008916E000800000000FB
:1000F0000000000000000000000000000000000000
:0C01000000000000000000005FF808F1A3
:10011000034613F8012B002AFBD1181A0138704747
:1001200010F8012B11F8013B012A28BF9A42F7D0A1
:10013000D01A704781F0004102E000BF83F0004315
:1001400030B54FEA41044FEA430594EA050F08BF72
:1001500090EA020F1FBF54EA000C55EA020C7FEA36
:10016000645C7FEA655C00F0E2804FEA5454D4EBB3
:100170005555B8BF6D420CDD2C4480EA020281EA7D
:10018000030382EA000083EA010180EA020281EAB5
:100190000303362D88BF30BD11F0004F4FEA013107
:1001A0004FF4801C4CEA113102D0404261EB410116
:1001B00013F0004F4FEA03334CEA133302D052429C
:1001C00063EB430394EA050F00F0A780A4F1010458
:1001D000D5F1200E0DDB02FA0EFC22FA05F2801892
:1001E00041F1000103FA0EF2801843FA05F3594178
:1001F0000EE0A5F120050EF1200E012A03FA0EFCF7
:1002000028BF4CF0020C43FA05F3C01851EBE37120
:1002100001F0004507D54FF0000EDCF1000C7EEB3D
:1002200000006EEB0101B1F5801F1BD3B1F5001F7B
:100230000CD349085FEA30004FEA3C0C04F101049A
:100240004FEA445212F5800F80F09A80BCF1004FC3
:1002500008BF5FEA500C50F1000041EB045141EA45
:10026000050130BD5FEA4C0C404141EB0101013C0E
:1002700028BFB1F5801FE9D291F0000F04BF0146FD
:100280000020B1FA81F308BF2033A3F10B03B3F1CF
:1002900020020CDA0C3208DD02F1140CC2F10C025F
:1002A00001FA0CF021FA02F10CE002F11402D8BFBD
:1002B000C2F1200C01FA02F120FA0CFCDCBF41EA89
:1002C0000C019040E41AA2BF01EB0451294330BD58
:1002D0006FEA04041F3C1CDA0C340EDC04F1140435
:1002E000C4F1200220FA04F001FA02F340EA03000C
:1002F00021FA04F345EA030130BDC4F10C04C4F152
:10030000200220FA02F001FA04F340EA0300294631
:1003100030BD21FA04F0294630BD94F0000F83F47B
:10032000801306BF81F480110134013D4EE77FEA5E
:10033000645C18BF7FEA655C29D094EA050F08BFAA
:1003400090EA020F05D054EA000C04BF194610468B
:1003500030BD91EA030F1EBF0021002030BD5FEACF
:10036000545C05D14000494128BF41F0004130BDF7
:1003700014F580043CBF01F5801130BD01F000454B
:1003800045F0FE4141F470014FF0000030BD7FEABE
:10039000645C1ABF194610467FEA655C1CBF0B46B9
:1003A000024650EA013406BF52EA033591EA030FD0
:1003B00041F4002130BD00BF90F0000F04BF0021C8
:1003C000704730B54FF4806404F132044FF00005FB
:1003D0004FF0000150E700BF90F0000F04BF002174
:1003E000704730B54FF4806404F1320410F00045DA
:1003F00048BF40424FF000013EE700BF42004FEAD5
:10040000E2014FEA31014FEA02701FBF12F07F4351
:1004100093F07F4F81F06051704732F07F4208BF08
:10042000704793F07F4F04BF41F40021704730B50F
:100430004FF4607401F0004521F000411CE700BF5B
:1004400050EA010208BF704730B54FF000050AE0DE
:1004500050EA010208BF704730B511F0004502D5DF
:10046000404261EB41014FF4806404F132045FEAE1
:10047000915C3FF4D8AE4FF003025FEADC0C18BF8A
:1004800003325FEADC0C18BF033202EBDC02C2F17C
:10049000200300FA03FC20FA02F001FA03FE40EA0E
:1004A0000E0021FA02F11444BDE600BF70B54FF012
:1004B000FF0C4CF4E06C1CEA11541DBF1CEA1355F0
:1004C00094EA0C0F95EA0C0F00F0DEF82C4481EA58
:1004D000030621EA4C5123EA4C5350EA013518BF78
:1004E00052EA033541F4801143F4801338D0A0FB65
:1004F00002CE4FF00005E1FB02E506F00042E0FB12
:1005000003E54FF00006E1FB03569CF0000F18BF17
:100510004EF0010EA4F1FF04B6F5007F64F54074BF
:1005200004D25FEA4E0E6D4146EB060642EAC62152
:1005300041EA55514FEAC52040EA5E504FEACE2EBF
:10054000B4F1FD0C88BFBCF5E06F1ED8BEF1004FC2
:1005500008BF5FEA500E50F1000041EB045170BD3E
:1005600006F0004646EA010140EA020081EA030182
:10057000B4EB5C04C2BFD4EB0C0541EA045170BD7E
:1005800041F480114FF0000E013C00F3AB8014F1F8
:10059000360FDEBF002001F0004170BDC4F1000441
:1005A000203C35DA0C341BDC04F11404C4F12005C2
:1005B00000FA05F320FA04F001FA05F240EA02001D
:1005C00001F0004221F0004110EBD37021FA04F653
:1005D00042EB06015EEA430E08BF20EAD37070BD0D
:1005E000C4F10C04C4F1200500FA04F320FA05F06C
:1005F00001FA04F240EA020001F0004110EBD3706E
:1006000041F100015EEA430E08BF20EAD37070BDDD
:10061000C4F1200500FA05F24EEA020E20FA04F3B6
:1006200001FA05F243EA020321FA04F001F0004165
:1006300021FA04F220EA020000EBD3705EEA430ED6
:1006400008BF20EAD37070BD94F0000F0FD101F005
:100650000046400041EB010111F4801F08BF013C3E
:10066000F7D041EA060195F0000F18BF704703F07C
:100670000046520043EB030313F4801F08BF013D03
:10068000F7D043EA0603704794EA0C0F0CEA1355BF
:1006900018BF95EA0C0F0CD050EA410618BF52EA79
:1006A0004306D1D181EA030101F000414FF000007F
:1006B00070BD50EA410606BF1046194652EA43068D
:1006C00019D094EA0C0F02D150EA013613D195EA01
:1006D0000C0F05D152EA03361CBF104619460AD149
:1006E00081EA030101F0004141F0FE4141F4700153
:1006F0004FF0000070BD41F0FE4141F4780170BD43
:1007000070B54FF0FF0C4CF4E06C1CEA11541DBFA7
:100710001CEA135594EA0C0F95EA0C0F00F0A7F8A9
:10072000A4EB050481EA030E52EA03354FEA0131D6
:1007300000F088804FEA03334FF0805545EA1313E9
:1007400043EA12634FEA022245EA111545EA1065B1
:100750004FEA00260EF000419D4208BF964244F148
:10076000FD0404F5407402D25B084FEA3202B61A67
:1007700065EB03055B084FEA32024FF480104FF43B
:10078000002CB6EB020E75EB030E22BFB61A7546AF
:1007900040EA0C005B084FEA3202B6EB020E75EB42
:1007A000030E22BFB61A754640EA5C005B084FEAAA
:1007B0003202B6EB020E75EB030E22BFB61A754677
:1007C00040EA9C005B084FEA3202B6EB020E75EB82
:1007D000030E22BFB61A754640EADC0055EA060E43
:1007E00018D04FEA051545EA16754FEA06164FEA86
:1007F000C30343EA52734FEAC2025FEA1C1CC0D132
:1008000011F4801F0BD141EA00014FF000004FF0BE
:10081000004CB6E711F4801F04BF01430020B4F17F
:10082000FD0C88BFBCF5E06F3FF6AFAEB5EB030C37
:1008300004BFB6EB020C5FEA500C50F1000041EB34
:10084000045170BD0EF0004E4EEA113114EB5C0401
:10085000C2BFD4EB0C0541EA045170BD41F48011D4
:100860004FF0000E013C90E645EA060E8DE60CEADC
:10087000135594EA0C0F08BF95EA0C0F3FF43BAFF9
:1008800094EA0C0F0AD150EA01347FF434AF95EAB0
:100890000C0F7FF425AF104619462CE795EA0C0F94
:1008A00006D152EA03353FF4FDAE1046194622E761
:1008B00050EA410618BF52EA43067FF4C5AE50EA3B
:1008C00041047FF40DAF52EA43057FF4EBAE12E72B
:1008D0004FF0FF3C06E000BF4FF0010C02E000BF0C
:1008E0004FF0010C4DF804CD4FEA410C7FEA6C5CEF
:1008F0004FEA430C18BF7FEA6C5C1BD001B050EA92
:10090000410C0CBF52EA430C91EA030F02BF90EA7C
:10091000020F0020704710F1000F91EA030F58BF3B
:10092000994208BF90422CBFD8176FEAE37040F09D
:10093000010070474FEA410C7FEA6C5C02D150EA3B
:10094000013C07D14FEA430C7FEA6C5CD6D152EAF6
:10095000033CD3D05DF8040B704700BF84461046BB
:1009600062468C461946634600E000BF01B5FFF7BA
:10097000B7FF002848BF10F1000F01BD4DF808ED8A
:10098000FFF7F4FF0CBF012000205DF808FB00BF5B
:100990004DF808EDFFF7EAFF34BF012000205DF8B5
:1009A00008FB00BF4DF808EDFFF7E0FF94BF012002
:1009B00000205DF808FB00BF4DF808EDFFF7CEFF03
:1009C00094BF012000205DF808FB00BF4DF808ED42
:1009D000FFF7C4FF34BF012000205DF808FB00BF13
:1009E0004FEA410C7FEA6C5C02D150EA013C0AD12B
:1009F0004FEA430C7FEA6C5C02D152EA033C02D11D
:100A00004FF0000070474FF0010070474FEA41027D
:100A100012F5001215D211D56FF47873B3EB625250
:100A200012D94FEAC12343F0004343EA505311F077
:100A3000004F23FA02F018BF404270474FF0000009
:100A4000704750EA013005D111F0004008BF6FF047
:100A5000004070474FF00000704700BF4A0011D2BD
:100A600012F5001211D20DD56FF47873B3EB625208
:100A70000ED44FEAC12343F0004343EA505323FA14
:100A800002F070474FF00000704750EA013002D189
:100A90004FF0FF3070474FF0000070474FEA4102BF
:100AA000B2F1E04324BFB3F5001CDCF1FE5C0DD9CC
:100AB00001F0004C4FEAC0024CEA5070B2F1004F16
:100AC00040EB830008BF20F00100704711F0804F19
:100AD00021D113F13872BCBF01F00040704741F4DE
:100AE00080114FEA5252C2F11802C2F1200C10FAE2
:100AF0000CF320FA02F018BF40F001004FEAC123C6
:100B00004FEAD32303FA0CFC40EA0C0023FA02F369
:100B10004FEA4303CCE77FEA625307D150EA01333F
:100B20001EBF4FF0FE4040F44000704701F000400F
:100B300040F0FE4040F40000704700BF80F00040ED
:100B400002E000BF81F0004142001FBF5FEA4103A5
:100B500092EA030F7FEA226C7FEA236C6AD04FEAA5
:100B60001262D2EB1363C1BFD218414048404140EA
:100B7000B8BF5B42192B88BF704710F0004F40F49C
:100B8000000020F07F4018BF404211F0004F41F4B8
:100B9000000121F07F4118BF494292EA030F3FD084
:100BA000A2F1010241FA03FC10EB0C00C3F1200397
:100BB00001FA03F100F0004302D5494260EB400026
:100BC000B0F5000F13D3B0F1807F06D340084FEA91
:100BD000310102F10102FE2A51D2B1F1004F40EB86
:100BE000C25008BF20F0010040EA030070474900EE
:100BF00040EB0000013A28BFB0F5000FEDD2B0FA8B
:100C000080FCACF1080CB2EB0C0200FA0CF0AABFAD
:100C100000EBC25052421843BCBFD040184370474B
:100C200092F0000F81F4000106BF80F40000013251
:100C3000013BB5E74FEA41037FEA226C18BF7FEA28
:100C4000236C21D092EA030F04D092F0000F08BF6A
:100C50000846704790EA010F1CBF0020704712F051
:100C60007F4F04D1400028BF40F00040704712F190
:100C700000723CBF00F50000704700F0004343F0F5
:100C8000FE4040F4000070477FEA226216BF08462B
:100C90007FEA23630146420206BF5FEA412390EAEE
:100CA000010F40F4800070474FF0000304E000BFE4
:100CB00010F0004348BF40425FEA000C08BF704795
:100CC00043F0964301464FF000001CE050EA010259
:100CD00008BF70474FF000030AE000BF50EA01026E
:100CE00008BF704711F0004302D5404261EB41015B
:100CF0005FEA010C02BF84460146002043F0B64380
:100D000008BFA3F18053A3F50003BCFA8CF2083AA4
:100D1000A3EBC25310DB01FA02FC634400FA02FCAD
:100D2000C2F12002BCF1004F20FA02F243EB0200B4
:100D300008BF20F00100704702F1200201FA02FC16
:100D4000C2F1200250EA4C0021FA02F243EB020009
:100D500008BF20EADC7070474FF0FF0C1CEAD0524D
:100D60001EBF1CEAD15392EA0C0F93EA0C0F6FD00E
:100D70001A4480EA010C400218BF5FEA41211ED0EC
:100D80004FF0006343EA501043EA5111A0FB0131D8
:100D90000CF00040B1F5000F3EBF490041EAD371AD
:100DA0005B0040EA010062F17F02FD2A1DD8B3F129
:100DB000004F40EBC25008BF20F00100704790F098
:100DC000000F0CF0004C08BF49024CEA502040EAEA
:100DD00051207F3AC2BFD2F1FF0340EAC2507047B0
:100DE00040F400004FF00003013A5DDC12F1190FEE
:100DF000DCBF00F000407047C2F10002410021FA60
:100E000002F1C2F1200200FA02FC5FEA310040F177
:100E1000000053EA4C0308BF20EADC70704792F0F0
:100E2000000F00F0004C02BF400010F4000F013A28
:100E3000F9D040EA0C0093F0000F01F0004C02BF23
:100E4000490011F4000F013BF9D041EA0C018FE792
:100E50000CEAD15392EA0C0F18BF93EA0C0F0AD098
:100E600030F0004C18BF31F0004CD8D180EA0100BE
:100E700000F00040704790F0000F17BF90F0004F57
:100E8000084691F0000F91F0004F14D092EA0C0F39
:100E900001D142020FD193EA0C0F03D14B0218BFCC
:100EA000084608D180EA010000F0004040F0FE4012
:100EB00040F40000704740F0FE4040F440007047AE
:100EC0004FF0FF0C1CEAD0521EBF1CEAD15392EA2D
:100ED0000C0F93EA0C0F69D0A2EB030280EA010C1D
:100EE00049024FEA402037D04FF0805343EA1111B6
:100EF00043EA10130CF000408B4238BF5B0042F114
:100F00007D024FF4000C8B4224BF5B1A40EA0C00B8
:100F1000B3EB510F24BFA3EB510340EA5C00B3EBEA
:100F2000910F24BFA3EB910340EA9C00B3EBD10FD8
:100F300024BFA3EBD10340EADC001B0118BF5FEA2A
:100F40001C1CE0D1FD2A3FF650AF8B4240EBC25053
:100F500008BF20F0010070470CF0004C4CEA502014
:100F60007F32C2BFD2F1FF0340EAC250704740F463
:100F700000004FF00003013A37E792F0000F00F055
:100F8000004C02BF400010F4000F013AF9D040EAD3
:100F90000C0093F0000F01F0004C02BF490011F467
:100FA000000F013BF9D041EA0C0195E70CEAD1535F
:100FB00092EA0C0F08D142027FF47DAF93EA0C0F46
:100FC0007FF470AF084676E793EA0C0F04D14B022A
:100FD0003FF44CAF08466EE730F0004C18BF31F0DC
:100FE000004CCAD130F000427FF45CAF31F00043D6
:100FF0007FF43CAF5FE700BF0348044B834202D05D
:10100000034B03B118477047EC010020EC010020AE
:10101000000000000548064B1B1AD90F01EBA30185
:10102000491002D0034B03B118477047EC01002070
:10103000EC0100200000000010B5064C237843B9F5
:10104000FFF7DAFF044B13B10448AFF3008001232C
:10105000237010BDEC01002000000000ECA200088D
:1010600008B5054B1BB105490548AFF30080BDE845
:101070000840FFF7CFBF00BF00000000F0010020D4
:10108000ECA20008002B2DE9F0471D46BBBF03F181
:1010900000431D4600232D2388B0149F144627F0DB
:1010A0002007B8BF1446129A462F109EDDF84CA0B8
:1010B000137004D0452F00D10136022300E0032332
:1010C00007AA049206AACDE902A2CDE9003622467B
:1010D0002B4601F089F8472F80461AD1119BDB0778
:1010E0000ED500EB06090022002320462946FFF713
:1010F00045FC08B1CDF81C903022079B4B451ED310
:101100004046079B159AA3EB0803136008B0BDE89F
:10111000F087462F00EB0609E5D10378302B0AD182
:101120000022002320462946FFF728FC18B9C6F103
:101130000106CAF80060DAF800309944D3E7591C78
:1011400007911A70D9E7F7B50029B6BF2D232B23D5
:1011500049420929027043702BDD0DF10704A646B0
:101160000A26871CB1FBF6F5A44606FB1512632977
:1011700002F13002294604F1FF340CF8012CF1DCB5
:101180003031ACF1020204F8011C1446411C7245D6
:101190000AD30DF10903A3EB0C03A64538BF0023C6
:1011A0003B44181A03B0F0BD12F8013B01F8013FAF
:1011B000EDE7302330318370C170031DF1E700008B
:1011C0002DE9F04F93B00C46DDF8708016461F46AF
:1011D000054600F0FDFE036818460B93FEF798FFE6
:1011E00000231093D8F8003094F818A0073323F0A8
:1011F0000703F3E80212D4F800B0CDE90812C8F8EA
:10120000003013460A46C4E91223DDE9088323F0BF
:1012100000490C904FF0FF32404649469A4BFFF789
:10122000DFFB70BB4FF0FF3240464946964BFFF75D
:10123000B9FB30BBDDE9080100220023FFF7A8FB62
:1012400010B12D2384F84330904A914BBAF1470FE7
:101250008CBF9046984603234FF0000923612BF082
:1012600004032360334621462846009711AA00F064
:10127000D1F9013040F08F804FF0FF3013B0BDE85E
:10128000F08FDDE9082310461946FFF7A9FB40B1AE
:10129000099B804A002BBCBF2D2384F843307E4B32
:1012A000D4E763680AF0DF095A1C3ED10623636065
:1012B00000224BF480632360069210AACDE904A2B9
:1012C0000FAA03920DF13B02CDE901326368284673
:1012D0000093DDE90823FFF7D5FEB9F1470F8046FB
:1012E0000F9929D1C81C02DB63688B4241DAAAF14D
:1012F000020A5FFA8AFA5246013904F150000F914E
:10130000FFF721FF109A81461318012A236102DC9E
:101310002268D20701D5013323619DF83B30002BB1
:10132000A0D02D2384F843309CE7B9F1470FBFD1FB
:10133000002BBDD10123BAE7BAF1650FDBD9BAF1B1
:10134000660F18D1002963680BDD216113B922688B
:10135000D00702D501330B4423614FF00009A1658A
:10136000DBE713B92268D20701D50233F4E7012382
:10137000F2E74FF0670A109B8B4205DC236821617E
:10138000D807EAD54B1CE7E70029CCBF0122C1F101
:1013900002021344E0E723685A0507D42369424652
:1013A00031462846B847013028D165E7BAF1650FC4
:1013B00040F2DC80D4E9120100220023FFF7DEFABC
:1013C00090B3012331462846344AB84701303FF4F0
:1013D00053AFDDE90F38434502DB2368D8070DD54D
:1013E000DDE90B2331462846B84701303FF444AFCE
:1013F0004FF0000908F1FF38C84509DC23689B0756
:1014000000F10581E068119B9842B8BF184635E7A6
:1014100001233146284604F11A02B84701303FF44F
:101420002BAF09F10109E7E70F9B834238DC012369
:1014300031462846194AB84701303FF41DAFDDE96F
:101440000F3959EA030302D12368D907D6D5DDE95C
:101450000B2331462846B84701303FF40DAF4FF01B
:10146000000A0F9B5B42534501DC4B4697E7012383
:101470003146284604F11A02B84701303FF4FCAE69
:101480000AF1010AEDE700BFFFFFEF7F18A3000894
:1014900014A3000820A300081CA3000801A500084D
:1014A000A36DDDF840B05B45A8BF5B46002B0893F9
:1014B00037DC4FF0000904F11A02089BD4F858A059
:1014C000002BB4BF5346AAEB03034B4531DC0F9B03
:1014D0009B453ADC2368DA0737D40F9BABEB030953
:1014E000ABEB0A039945A8BF9946B9F1000F34DC6C
:1014F0004FF000080F9BB9F1000FABEB0303A8BF3F
:10150000A3EB090343457FF779AF01233146284612
:1015100004F11A02B84701303FF4AEAE08F10108F9
:10152000E8E7424631462846089BB8470130C0D11B
:10153000A2E60123314628460D92B84701303FF418
:101540009BAE0D9A09F10109B7E73146DDE90B239E
:101550002846B8470130C0D18EE64B463146284672
:1015600008EB0A02B8470130C2D185E6DDF840A099
:10157000BAF1010F01DCDB0735D5012342463146C4
:101580002846B84701303FF477AEDDE90B233146FA
:101590002846B84701303FF46FAED4E9120100226B
:1015A00000230AF1FF3AFFF7E9F9C8B9534608F1F9
:1015B000010231462846B84701300DD15CE60123CF
:1015C0003146284604F11A02B84701303FF454AEC0
:1015D00008F10108D045F2DB4B4604F15002DFE68A
:1015E0004FF00008F6E701234246E2E701233146C7
:1015F000284604F11902B84701303FF43DAE08F126
:101600000108E36811995B1A4345EFDCFAE64FF0F5
:101610000008F6E72DE9F047914698468A680B697D
:1016200007469342B8BF1346C9F8003091F84320EB
:101630000C46089E12B10133C9F8003023689906A0
:1016400042BFD9F800300233C9F80030256815F0E0
:10165000060507D104F1190AE368D9F800209B1A9E
:10166000AB4229DC94F843302268003B18BF0123C9
:1016700092062ED44146384604F14302B047013069
:1016800021D02368A16803F00603042B12BF0025B4
:10169000E568D9F80030226904BFED1A25EAE5753E
:1016A0008B1A2B449142C8BF1D464FF000091A34D3
:1016B0004D451AD1002008E00123524641463846E4
:1016C000B047013003D14FF0FF30BDE8F08701355E
:1016D000C2E73020E11881F843005A1C94F8451005
:1016E0002244023382F84310C4E7012322464146D4
:1016F0003846B0470130E6D009F10109D8E70000CB
:101700002DE9F04398460B7E85B0782B17460646A8
:101710000C460C9A09D8622B01F1430108D8002B22
:1017200000F0DC80582B00F0BD8004F1420539E068
:10173000A3F163001528F8D801A555F820F000BFE3
:1017400099170008AD1700082B1700082B17000881
:101750002B1700082B170008AD1700082B170008DF
:101760002B1700082B1700082B170008BD180008BE
:10177000D91700086B1800082B1700082B17000852
:10178000E51800082B170008D91700082B170008C8
:101790002B17000873180008136804F14205191D7F
:1017A0001B68116084F842300123A8E013682568A3
:1017B000181D1060280601D51B6803E06A06FBD5DA
:1017C000B3F90030002B03DA2D225B4284F843206A
:1017D0000A22DFF878C113E02568106815F0800F41
:1017E00050F8043B02D16D0648BF9BB21060227EC8
:1017F000DFF858C16F2A5DD10822002084F8430029
:101800006568002DA56005DB20681D4320F00400FD
:10181000206051D00D46B3FBF2F002FB103E1CF8E5
:101820000EE09A4205F801ED0346F4D9082A0BD1DF
:101830002368DA0708D5236962689A42DEBF30233D
:1018400005F8013C05F1FF35491B21613B46214666
:101850003046CDF8008003AAFFF7DCFE013053D1FB
:101860004FF0FF3005B0BDE8F083236843F020035C
:1018700023607823DFF8D8C084F8453020681568E5
:1018800010F0800F55F8043B03D110F0400F18BF43
:101890009BB21560C50744BF40F02000206023B113
:1018A0001022AAE7DFF8A4C0E6E7226822F02002AF
:1018B0002260F5E70A22A0E70D46B7E71368D4F8DF
:1018C00000C01D1D60691CF0800F15601B6801D0F1
:1018D000186003E01CF0400FFAD0188000230D467A
:1018E0002361B3E71368191D11601D6800212846A4
:1018F000626800F0DEFB08B1401B60606368236132
:10190000002384F84330A1E72A463946304623694C
:10191000C0470130A4D023689B0714D4E068039B20
:101920009842B8BF18469DE701233946304604F176
:101930001902C047013093D00135E36803995B1A5F
:10194000AB42F1DCEAE70025F7E700BF24A300087B
:1019500035A300082DE9F04F87B003938B689146BB
:101960005A1EB2F5AE7F82BF6FF4AE7503EB050B66
:1019700040F25D130A464FF0000588BF8B600B688C
:10198000804643F4F06342F81C3B0C4698BF4FF08E
:10199000000B1646AA462F46CDE904550192029542
:1019A000A2685AB1D9F800301B784E2B62D8402B70
:1019B0003AD8A3F12B01C8B20E2838D91FB1236839
:1019C00023F4807323600AF1FF3ABAF1010F00F2A9
:1019D0001481019B9E4200F20581012007B0BDE801
:1019E000F08FA3F161020D2AE8D801A151F822F08D
:1019F000391B0008BD190008BD190008BD190008F1
:101A0000951B00086F1B0008BD190008BD190008D0
:101A1000471B0008BD190008BD190008BD190008C2
:101A2000BD190008031B0008A3F14102DBE70E29E2
:101A3000C4D801A050F821F0F31A0008BD1900081D
:101A4000F31A0008831B0008BD190008951A000846
:101A5000D91A0008D91A0008D91A0008D91A00089A
:101A6000D91A0008D91A0008D91A0008D91A00088A
:101A7000D91A00086E2B09D8602BB2D8542B7BD012
:101A8000592B9BD1072D99D108252FE0742B73D0AA
:101A9000792BF6E72168C8051ED521F08001216069
:101AA0000137BBF1000F03D001320BF1FF3BA26005
:101AB000A368013BA360236901332361D9F8043093
:101AC000013B002BC9F8043040F38380D9F8003083
:101AD0000133C9F8003063E71AEB05017FF46EAFFC
:101AE0000D468A46226822F4C072226006F8013B45
:101AF000DEE7226810067FF561AF22F080022260E7
:101B0000F4E7BAF1000F0CD177B9226802F4E06172
:101B1000B1F5E06F08D122F4F0624FF0010A2260C3
:101B2000E4E7BAF1020F51D0012D02D0042D7FF469
:101B300045AF0135EDB2D9E7BAF1010F7FF43EAF01
:101B40004FF0020AD2E775B9002F7FF438AF226850
:101B500002F4E061B1F5E06F40F0FF8022F4F06242
:101B600001252260C2E7032DE3D0052DDFE7022D1A
:101B70007FF424AF0325B9E7062D7FF41FAF0725B7
:101B8000B4E7226891057FF519AF22F42072226034
:101B90000297ABE7226802F4A061B1F5806F05D02F
:101BA00050057FF50BAF002F00F0D780910558BF8F
:101BB000029922F4F06258BF791A42F4C0724FF0D1
:101BC000000758BFCDE9041622608FE74FF0030AE3
:101BD0008CE749464046D4F88031984700283FF4C6
:101BE000DFAEEBE6D4F87C314A46404616F8011DDC
:101BF00098472369013B2361EBE66B1E062B24D833
:101C0000022D36D8019B9E427FF6E7AED4F87C3198
:101C10004A46404616F8011D98472369013B236157
:101C2000F0E7D4F87C314A4640461BF8011D98473E
:101C300023690AF1FF3A013B5FFA8AFA2361BAF19C
:101C4000030FEED1033DEDB2761B2368DA0530D5E4
:101C50005B0511D5019B9E427FF6BFAED4F87C3167
:101C60004A46404616F8011D98472369013B236107
:101C7000F0E7AA46B346E2E716F8011C2369652996
:101C800003F1FF3306F1FF3523610CD045290AD05B
:101C9000D4F87C314A4640469847236916F8021C1E
:101CA000013BB51E23614A464046D4F87C31984733
:101CB0002E46226812F0100201D000208EE632700B
:101CC000236803F4C063B3F5806F25D1029B9F4264
:101CD0000AD0DA1B04F26F139E4228BF04F5B776D0
:101CE00030461F4900F004F900224046019902F0F5
:101CF00007FC039B25681B6815F0020F06460F467C
:101D000003F1040215D003990A601B68C3E9006758
:101D1000E3680133E360D0E7049B002BE4D005992E
:101D20000A234046013102F06BFC049B059EC21A57
:101D3000D0E76D07E7D4039D2A601D6802460B4675
:101D4000FEF74EFE20B1074800F0C2F92860DFE739
:101D500030463946FEF7A2FEF8E7002733E600BF1B
:101D600046A3000889A40008002310B50446C0E972
:101D70000033C0E90433836081814366C28183619B
:101D8000194608225C3000F01BF90D4B2462636297
:101D90000C4BA3620C4BE3620C4B23630C4B9C4239
:101DA00006D003F16802944202D0D0339C4205D1A0
:101DB00004F15800BDE8104000F078B910BD00BF34
:101DC000351F00085B1F0008931F0008B91F00089B
:101DD00008020020024A0349034800F06BB800BF24
:101DE00000000020AD4900081000002041680C4BA5
:101DF00010B59942044601D002F0D8FDA168094B04
:101E0000994202D0204602F0D1FDE168064B99428A
:101E100004D02046BDE8104002F0C8BD10BD00BF90
:101E20000802002070020020D802002010B50A4BE2
:101E30000A4A04211A600A480022FFF795FF01228E
:101E400009210848FFF790FFBDE810400222122147
:101E50000548FFF789BF00BF40030020D51D0008DB
:101E60000802002070020020D8020020014800F083
:101E70001EB900BF49030020014800F019B900BF96
:101E80004903002010B50446FFF7F0FF236A1BB199
:101E9000BDE81040FFF7F0BF044B2362044B1B6802
:101EA000002BF5D1FFF7C2FFF2E700BFED1D0008E0
:101EB000400300202DE9F843804689461446002659
:101EC000D4E90175013F05D52468002CF8D13046CE
:101ED000BDE8F883AB89012B07D9B5F90E30013382
:101EE00003D029464046C84706436835EAE7000064
:101EF0000EB46FF0004110B500249DB01FAB0290EE
:101F00000690079104910948094953F8042B05915B
:101F1000006802A901931B9402F0D4FB029B1C7081
:101F20001DB0BDE8104003B0704700BF0C0000209A
:101F30000802FFFF10B50C46B1F90E1000F06EF864
:101F40000028ABBF636DA3891B1823F48053ACBF7B
:101F50006365A38110BD002070472DE9F0411F4645
:101F60008B890546DB050C46164605D50223002263
:101F7000B1F90E1000F040F8A389324623F48053E3
:101F8000A38128463B46B4F90E10BDE8F04100F0AD
:101F900057B810B50C46B1F90E1000F02DF8B4F991
:101FA0000C30421C0BBF23F4805343F48053A381B5
:101FB000A38118BF606510BDB1F90E1000F00CB818
:101FC00003460244934200D1704703F8011BF9E72E
:101FD000004870474C01002038B50023054C0546E9
:101FE0000846236003F0B8FE431C02D1236803B106
:101FF0002B6038BD4403002038B50546084611461D
:102000000022054C22601A4603F0B0FE431C02D1A8
:10201000236803B12B6038BD4403002038B5054662
:10202000084611460022054C22601A4603F076FE4F
:10203000431C02D1236803B12B6038BD4403002048
:1020400038B50546084611460022054C22601A465E
:1020500003F074FE431C02D1236803B12B6038BD2A
:102060004403002070B500260C4C0D4B1D1BB6EB35
:10207000A50F09D1002608F039F90A4C0A4B1D1B9F
:10208000B6EBA50F05D170BD54F8043B9847013657
:10209000EDE754F8043B98470136F1E77CB60008B9
:1020A0007CB600087CB6000880B600087047704710
:1020B0007047034610B5C9B20244934201D10020D3
:1020C00004E01846047801338C42F6D110BD0000BC
:1020D000004870470000C07F2DE9F74F03690C6985
:1020E0008046A3427EDB013CA30000F1140501F110
:1020F0001407009305EB8403019357F8243055F837
:10210000242001339A42B2FBF3F607EB84092ED365
:102110004FF0000ABC46AE46D3465CF8043B98B28A
:1021200006FB00A01B0C020C06FB0323DEF80020BC
:1021300080B292B2121A5A44DEF800004FEA134AF3
:102140009BB2C3EB224303EB104392B242EA034239
:10215000E1454FEA234B4EF8042BDED2009BEB58AF
:102160002BB9019B1A1F954230D3C8F81040404646
:1021700001F0EAF9002825DB29460020013657F84E
:10218000042BD1F800C01FFA82FE1FFA8CF3A3EBD8
:102190000E030344120CC2EB234202EB1C429BB21F
:1021A00043EA0243B9454FEA224041F8043BE6D2F4
:1021B00055F8242005EB840322B9043B9D420BD340
:1021C000C8F81040304603B0BDE8F08F1368002B0C
:1021D000CBD1043A013CC6E71A68002AF0D1043B8F
:1021E000013CEBE70020EEE72DE9F04F16461F46D5
:1021F000C26999B08146CDE90E67259C82B910204D
:1022000000F01AFE0246C9F81C0020B9EF21A24BCB
:10221000A24802F049FC0023C0E901330360C36017
:10222000116859B101235268484693404A608B6057
:1022300000F0F2FE0022D9F81C301A60B7F1000855
:10224000B5BF0123002323602360954BBCBF28F05A
:102250000048CDF83C8033EA08031AD142F20F73EC
:10226000249AC8F3130858EA0608136000F06D8535
:10227000269B53B98B4B21E08B4B03930833269A53
:102280001360039819B0BDE8F08F864B03930333B6
:10229000F5E7DDE90E34CDE90A34DDE90A01002273
:1022A0000023FEF76BFB824650B10123249A136092
:1022B000269B13B17D4B269A13607D4B0393E0E779
:1022C00016AB019317AB00934846DDE90A2301F0F2
:1022D00057FA5FEA1854169D04907CD0DDE90A0194
:1022E0000B9BA4F2FF34C3F3130343F07F5343F477
:1022F0004013CDF850A0194600226E4BFDF71EFF8B
:102300005FA3D3E90023FEF7D1F85FA3D3E900234D
:10231000FDF716FF064620460F46FEF75DF85CA364
:10232000D3E90023FEF7C2F802460B463046394691
:10233000FDF706FF06460F46FEF768FB00228046C3
:10234000002330463946FEF723FB48B14046FEF7EE
:1023500043F832463B46FEF711FB08B908F1FF3857
:10236000B8F1160F54D8DDE90A01534B03EBC8034B
:10237000D3E90023FEF70CFB00284BD0002308F123
:10238000FF3811932D1B6B1E099349BF00230027B3
:10239000C5F101070993B8F1000F3DDB099BCDF8AA
:1023A00040804344099300230C93229B092B00F2A5
:1023B0008780052BC4BF043B2293229BC8BF002407
:1023C000A3F10203D8BF0124032B00F28580DFE8CC
:1023D00003F05153362B179C2C4404F23243202B2C
:1023E000C1BFC3F1400308FA03F804F2124326FA0E
:1023F00003F3D6BFC3F1200348EA030006FA03F053
:10240000FDF7DAFF0122A1F1F873013C149272E7A3
:102410000123B6E71190B5E7C8F100030C93002340
:10242000A7EB08071093C0E701230D93239B4344B8
:1024300008930133012B0593B8BF012306E0012364
:102440000D93239B002B4ADD089305930021042262
:10245000D9F81C0002F114059D4245D94160484657
:1024600000F09CFD0390002841D1024640F2AF11DC
:10247000124BCDE60023E3E70023D6E7AFF300805D
:1024800061436F63A787D23FB3C8608B288AC63F7A
:10249000FB799F501344D33F58A300086FA3000853
:1024A0000000F07F54A300084BA3000802A5000819
:1024B00001A500080000F83F40A50008C8A30008D7
:1024C000012400230D9422934FF0FF330022089340
:1024D000059323921223B9E701230D93F4E7012317
:1024E000089305932393B1E701315200B2E7D9F87D
:1024F0001C30039A1A60059B0E2B75D8002C73D0E4
:10250000B8F1000F40F3C4809F4B08F00F0203EBBB
:10251000C20318F4807F4FEA2815D3E900AB00F01E
:10252000A380DDE90A01994B0324D3E90823FEF7D0
:10253000E7F8CDE9060105F00F05944E002D40F0B7
:102540009980DDE9060152465B46FEF7D9F88246DE
:102550008B46119B002B00F0C38000225046594649
:102560008B4BFEF715FA002800F0BA80059B002B74
:1025700000F0B680089B002B36DD08F1FF33504693
:10258000594606930022834BFDF790FF82468B4607
:10259000089E01342046FDF71FFF52465B46FDF7BB
:1025A00085FF00227C4BFDF7CBFD0446A1F1507561
:1025B000CDE91245002E40F0978000225046594642
:1025C000764BFDF7BBFD22462B4682468B46FEF737
:1025D000FDF9002840F0C18222465046594605F1D7
:1025E0000043FEF7D5F920BB179B002BC0F2918169
:1025F000B8F10E0F00F38D81634B03EBC803D3E9F1
:1026000000AB239B002B80F21B81059B002B00F36A
:1026100017810ED10022614B50465946FDF746FF07
:1026200002460B46DDE90A01FEF7BCF9002800F07E
:10263000978200252C46239B039EDB430693274667
:1026400000242946484600F0E7FC002F00F0EE8009
:102650002CB1BC4203D02146484600F0DDFC39468F
:10266000484600F0D9FCE1E0DDE90A34CDE9063462
:10267000022462E7E90708D5D6E900235046594607
:10268000FDF714FF82468B4601346D10083655E77E
:1026900022D0DDE90A01C8F100053B4B05F00F022D
:1026A00003EBC203D3E90023FDF700FF02248246B7
:1026B0008B46364E2D11002D3FF44BAFEA0708D55F
:1026C000D6E9002350465946FDF7F0FE82468B4678
:1026D00001346D100836EEE70224DDE90AAB38E775
:1026E000059ECDF8188055E7274B03EBC60353E949
:1026F00002010D9B002B55D002460B4600202849B5
:10270000FDF7FEFFDDE91223FDF718FD039BCDE980
:1027100012019D191E4659465046FEF777F900F101
:102720003004FDF759FE02460B4650465946FDF768
:1027300005FDDDE9122306F8014B82468B46FEF7C4
:1027400027F9002872D152465B4600201049FDF758
:10275000F5FCDDE91223FEF71BF9002840F0BA80F2
:10276000AE423FF441AFDDE912010022094BFDF713
:102770009DFE0022CDE91201064B50465946FDF759
:1027800095FE82468B46C6E740A5000818A50008BE
:102790000000F03F0000244000001C4000001440F6
:1027A0000000E03FDDE91223FDF780FE039BCDE949
:1027B00012013344039C159359465046FEF726F9FF
:1027C00000F13005FDF708FE0B460246594650461B
:1027D000FDF7B4FC159B04F8015B9C4282468B46D6
:1027E00027D1DDE91201039B00221E44AC4BFDF70B
:1027F000A7FC02460B4650465946FEF7E7F800286C
:1028000068D1DDE912230020A549FDF797FC0246B7
:102810000B4650465946FEF7BBF800283FF4E4AE9D
:10282000334616F8012D302AFAD01E46DDF81880FE
:102830003EE000229B4BFDF739FE82468B46BBE70C
:102840000024039E974D5246DDE90A015B46FDF7E1
:1028500057FFFEF7DBF80746FDF7BEFD52465B4625
:10286000FDF724FE02460B46DDE90A01FDF766FC92
:1028700007F1300C06F801CBDDF80CC0DDF814E0F0
:10288000A6EB0C0CE64502460B4633D1FDF758FC8F
:1028900052465B4604460D46FEF798F8C0B95246CC
:1028A0005B4620462946FEF769F808B1FB070FD4BE
:1028B0004846049900F0B0FB0023249A337008F1D5
:1028C00001031360269B002B3FF4DBAC1E60D8E4B1
:1028D000CDF8188033461E4613F8012D392A06D14B
:1028E000039A9A42F7D1069A0132069230220132B7
:1028F0001A709BE722462B46FDF7D8FD02460B4691
:10290000CDE90A2300220023FEF738F800289AD0E8
:10291000CEE70D9A002A00F0DF80229A012A00F308
:10292000C380149A002A00F0B78003F233430C9D51
:102930003E46099A01211A4448461F44099200F074
:1029400069FC044656B1099B002B07DDB342A8BFC2
:102950003346099AFF1AF61AD31A09930C9B0BB344
:102960000D9B002B00F0BF80002D00F0B9802146A8
:102970002A46484600F01AFD049A01460446484695
:1029800000F05EFC04998246484600F045FB0C9B33
:102990005B1B0C9300F0AA8051460C9A484600F04D
:1029A00005FD04900121484600F034FC109B0546CB
:1029B000002B00F0D1811A460146484600F0F6FC93
:1029C000229B0546012B00F399800E9B002B40F0C3
:1029D00090800F9BC3F31303002B40F08A800F9B62
:1029E00023F000431B0D1B05002B00F085804FF0EA
:1029F000010A099B013701330993109B002B00F05A
:102A0000B1812B6905EB8303186900F0B7FBC0F1B6
:102A10002000099B184410F01F0076D01B2870DCA2
:102A2000C0F11C000744064403440993002F05DD50
:102A30003A464846049900F015FD0490099B002B86
:102A400005DD29461A46484600F00CFD0546119B57
:102A5000002B5FD02946049800F076FD002859DA53
:102A600008F1FF3306930A2200234846049900F038
:102A7000F5FA0D9B0490002B00F07681002321468F
:102A80000A22484600F0EAFA089B0446002B71DC53
:102A9000229B022B47DC6DE0169BC3F1360346E711
:102AA0000000E03F00002440059B5D1E0C9BAB42F4
:102AB00008DB5D1B059B002BBFF63AAF059BFE1A9A
:102AC000002336E70C9B109AEB1A1A440C953E46ED
:102AD0000025059B10922CE73E460C9D0D9C31E78E
:102AE000DDF810A058E70C9A049957E7CDF810A02C
:102AF00058E74FF0000A80E79A467EE74FF0000A59
:102B00007FE71C2892D0C0F120001C30099B0744AD
:102B1000064489E7059BCDF81880002B24DC089338
:102B2000229B022B22DD089B002B7FF484AD2946DB
:102B30000522089B484600F091FA01460546049894
:102B400000F002FD00287FF776AD3123039E06F8E2
:102B5000013B069B0133069371E535462C46F4E7AD
:102B6000059DCDF81880F9E7059B08930D9B002B78
:102B700000F0FE80002E05DD21463246484600F07A
:102B800071FC0446BAF1000F58D04846616800F065
:102B900005FA064628B9024640F2EF217F4BFFF7BF
:102BA00037BB226904F10C01023292000C3001F0B3
:102BB00067FF01223146484600F054FC0746039B5C
:102BC000039A03F10108089B13440A930E9B03F038
:102BD0000103099329460498FFF77EFA21460590E0
:102BE00000F1300B049800F0AFFC3A4608902946FB
:102BF000484600F0C5FCC268064608F1FF3AFAB93B
:102C00000146049800F0A0FC0246314648460C926A
:102C100000F002FA229B0C9A464642EA0301099B05
:102C200019430FD1BBF1390F28D0089B002B02DDCF
:102C3000059B03F1310B8AF800B002E52746BEE799
:102C40000122E2E7089B002B04DB22990B43099940
:102C50000B4320D1002AEEDD01220499484600F002
:102C600001FC2946049000F06FFC002803DCE2D14F
:102C70001BF0010FDFD0BBF1390FD9D139238AF80E
:102C8000003033461E4616F8012C013B392A53D03A
:102C900001321A70D5E4002A07DDBBF1390FEDD0FF
:102CA0000BF101038AF80030CBE40A9B08F801BC61
:102CB00043452BD000230A220499484600F0CEF960
:102CC000BC4204904FF000034FF00A0221464846F0
:102CD00006D100F0C3F90446074608F1010879E778
:102CE00000F0BCF93946044600230A22484600F0A9
:102CF000B5F90746F1E7089B2746002B03F1FF369D
:102D0000D8BF00260024039B5A1C164401220499B4
:102D1000484600F0A7FB2946049000F015FC002867
:102D2000AFDC02D11BF0010FABD133461E4613F8C6
:102D3000012D302AFAD084E4039A9A42A2D1069B4C
:102D400001330693312313707BE4269B002B7FF421
:102D500093AA134BFFF7B2BA229B012B7FF735AE34
:102D6000DDF840A0012054E6089B002B7FF7D8AE89
:102D7000039E29460498FFF7AFF9039B00F1300B3F
:102D800006F801BBF21A089B9342B4DD00230A2225
:102D90004846049900F062F90490EAE7C8A30008E5
:102DA0004BA3000837B5002942D051F8043C0C1F52
:102DB000002BB8BFE418019000F0E4F81D4A019818
:102DC000136833B96360146003B0BDE8304000F0AD
:102DD000DFB8A34208D9256861198B4201BF196881
:102DE0005B6849192160EDE71A465B680BB1A342A5
:102DF000FAD911685518A5420BD1246821445418FA
:102E0000A3421160E0D11C685B680C4414605360FD
:102E1000DAE702D90C230360D6E7256861198B42F3
:102E200001BF19685B684919216063605460CBE792
:102E300003B030BD50030020024B0146186800F07B
:102E400025B800BF0C00002070B50F4C0E4621685D
:102E5000054611B901F0FEFD20603146284601F01B
:102E6000F9FD431C03D14FF0FF34204670BDC41C54
:102E700024F00304A042F8D0211A284601F0EAFD0C
:102E80000130F2D1EFE700BF4C0300202DE9F843F9
:102E9000CD1C25F0030508350C2D38BF0C25002D61
:102EA000064601DBA94204D90C2333600020BDE8AB
:102EB000F883334F00F066F83B681C463CBB29465C
:102EC0003046FFF7C1FF431C044656D13C68A0467C
:102ED000B8F1000F40D1002C49D02368414630465C
:102EE00004EB030901F0B6FD814540D1216830466D
:102EF0006D1A2946FFF7A8FF013038D023682B440C
:102F000023603B685A685ABBC7F800800EE022680D
:102F1000521B1ED40B2A16D96119A342256018BF73
:102F20005960636808BF396062514B60304600F0F9
:102F30002FF804F10B00231D20F00700C21A1CBF5C
:102F40001B1AA350B3E76268A3420CBF3A605A60F1
:102F5000ECE723466468B1E74446D8F80480B7E755
:102F60001A465B68A342FBD100235360DEE70C23C3
:102F70003046336000F00CF898E70560D6E700BFF4
:102F8000500300200148FFF792B800BF480300201B
:102F90000148FFF78DB800BF4803002070B5C46931
:102FA00005460E4684B91020FFF746FF0446E86147
:102FB00028B902466B21164B164801F075FD002317
:102FC000C0E901330360C360E36853B921220421DF
:102FD000284601F087FDEB69E060DB680BB9002053
:102FE00070BD53F8260030B1026843F82620002354
:102FF000C0E90333F4E7012101FA06F4621D284613
:10300000920001F06FFD0028E9D0C0E90164EEE70D
:1030100058A30008D9A3000870B5C46906460D4638
:1030200074B91020FFF708FF0246F06120B98F2124
:10303000084B094801F038FDC0E901440460C46050
:103040003DB1F3696A68DB6853F82210296043F8E0
:10305000225070BD58A30008D9A300082DE9F04103
:1030600007460C461E4600200D6901F1140CDCF8E1
:103070000030013099B202FB01611E0C0B0C02FB07
:10308000063389B201EB034185424FEA13464CF8FF
:10309000041BECDC0EB3A368AB4219DC6168384654
:1030A0000131FFF77BFF804628B90246BA210C4B5D
:1030B0000C4801F0F9FC226904F10C010232920083
:1030C0000C3001F0DDFC21463846FFF7A5FF4446F1
:1030D00004EB850301355E6125612046BDE8F08182
:1030E000C8A30008D9A300082DE9F8431446092213
:1030F0001F460833884693FBF2F30646012200215F
:103100009A4209DB3046FFF749FF40B90246D32116
:10311000184B194801F0C8FC52000131F0E7089B38
:10312000092C43614FF00103036108DC092408F115
:103130000A05641B2B199F4212DCBDE8F88308F1D5
:103140000905A946A04419F8013B01460A22304668
:10315000303BFFF783FFC145F5D12544083DE8E743
:1031600015F8013B01460A223046303BFFF776FF57
:10317000E0E700BFC8A30008D9A300080346B0F5E4
:10318000803F3ABF030410200020B3F1807F3CBF92
:103190001B020830B3F1805F3CBF1B010430B3F168
:1031A000804F3CBF9B000230002B04DB5B0001D54D
:1031B00001307047202070470368014613F0070272
:1031C0000BD0DA0722D4980749BF5B089B0801207F
:1031D0000B605CBF02200B60704798B2A0B9102052
:1031E0001B0CDAB20AB908301B0A1A0704BF1B0904
:1031F00004309A0704BF9B080230DA0702D45B0848
:1032000006D001300B6070471046EAE70020704797
:103210002020704710B50C460121FFF7BFFE024683
:1032200028B940F24511044B044801F03DFC01234C
:103230004461036110BD00BFC8A30008D9A3000802
:103240002DE9F04FD1F81080D2F810900E46C84505
:10325000144685B004DB4B460C46C14616469846DC
:10326000A368616809EB0807BB42B8BF0131FFF7EB
:1032700095FE30B902464FF4B1714A4B4A4801F00D
:1032800013FC00F114052B46002205EB870B5B4570
:1032900022D306F1140101EB880304F1140C0CEBAA
:1032A000890C029304F1150363458CBF00230123AD
:1032B0000093ACEB0403153B9B080193029B039125
:1032C0008B420CD8002F03DD5BF8043D002B67D048
:1032D000076105B0BDE8F08F43F8042BD7E7B1F8DC
:1032E00000A0BAF1000F28D0A9464FF0000E04F15B
:1032F000140858F8042BD9F8003096B29BB20AFB98
:103300000633D9F80060120C360C0AFB02667344CF
:1033100006EB13469BB243EA0643C4454FEA164EFA
:1033200049F8043BE5D8009A019B002A4FEA830341
:1033300008BF00232B44C3F804E0039B0431B3F817
:1033400002E0BEF1000F29D02B68A94698464FF045
:10335000000A04F1140632889BB20EFB02A202EBB3
:10336000184243EA024349F8043B56F8043BD9F8B3
:1033700000804FEA134A1FFA88F30EFB0A33B44564
:1033800003EB12434FEA134AE5D8009E019A002E40
:103390004FEA820208BF00222A44536004358DE7B9
:1033A000013F8FE7C8A30008D9A300082DE9F8431F
:1033B000174612F0030280460D4607D0264C013A0C
:1033C000002354F82220FFF749FE0546BF103FD0E6
:1033D000D8F81C4094B91020FFF72EFD0446C8F819
:1033E0001C0030B9024640F2B3111C4B1C4801F0DE
:1033F0005BFB0023C0E901330360C360A66846B9E4
:1034000040F271214046FFF705FF00230646A06009
:1034100003602C464FF0000907F001037F1053B101
:10342000294632464046FFF70BFF214605464046F7
:10343000FFF7F2FD67B1306838B932463146404691
:10344000FFF7FEFE3060C0F8009006462C46E3E72A
:103450002846BDE8F88300BF08A5000858A3000867
:10346000D9A300082DE9F84F0C4607469146266976
:10347000496806EB6216A3684FEA621A06F1010872
:1034800043450BDB3846FFF789FD054648B9024640
:103490004FF4EF712A4B2B4801F006FB01315B0022
:1034A000EEE7002300F114010A461846534539DBC4
:1034B00020692AEAEA7A01EB8A0104F1140319F07F
:1034C0001F098C4603EB800030D04FF0000EC9F18D
:1034D000200AE3461A680CF1040C02FA09F242EAE7
:1034E0000E02CBF8002053F8042B984222FA0AFE71
:1034F000EFD8031B153B23F0030304F115029042A0
:1035000038BF00231944C1F804E0BEF1000F00D118
:10351000B04638462146C5F81080FFF77DFD2846A5
:10352000BDE8F88F42F8040B0133BFE753F8041BE2
:103530000CF1040C98424CF8041CF7D8E8E700BFE3
:10354000C8A30008D9A3000803690A6930B59B1A0B
:103550000ED11430143100EB820401EB820154F8D7
:10356000045D51F8042D954204D006D24FF0FF338C
:10357000184630BDA042F2D3FAE70123F8E7000075
:103580002DE9F74F8A460646114650461446FFF786
:10359000DBFF051E12D129463046FFF7FFFC02462D
:1035A00028B940F23721404B404801F07DFA012311
:1035B000C0E90435104603B0BDE8F08FBCBF5346E8
:1035C000A2463046DAF80410BABF1C460125002591
:1035D000FFF7E4FC024618B940F24521324BE3E71D
:1035E000C56000F11405AB464FF0000CDAF810701E
:1035F00026690AF1140904F1140E0AF1100309EB0B
:1036000087080EEB86060193019B5EF8040B53F8C6
:1036100004AF81B201931FFA8AF35B1A000C634472
:10362000C0EB1A4000EB23409BB243EA00437645CF
:103630004FEA204C4BF8043BE6D8331B153B1534BE
:1036400023F00303A64238BF0023E8184B441C1D97
:1036500026460430A5EB090546450ED308F10301C3
:10366000091B21F003010133984538BF00210144B3
:1036700051F8043DB3B117619CE7E24606EB050E35
:1036800056F8041B1FFA81FCD4444FEA11495144F7
:1036900009EB2C4989B241EA09414FEA294CCEF89D
:1036A0000010D9E7013FE3E7C8A30008D9A3000849
:1036B0000E4B0B40A3F15073002B08DC5B42B3F1BF
:1036C000A07F4FEA235204DA4FF400231341002273
:1036D00008E0A2F114031E2BD6BF4FF000420122D6
:1036E000DA40002319461046704700BF0000F07F03
:1036F000F8B5056900F1140606EB850555F8044C8C
:103700002F1F2046FFF73AFDC0F120030A280B6067
:1037100015DCC0F10B0C24FA0CF1BE4241F07F53D2
:103720002CBF002155F8081C153004FA00F021FACE
:103730000CF143F44013014308461946F8BDBE425C
:103740002EBF002155F8081CA5F108070B3812D030
:10375000C0F1200521FA05F384401C43B74244F030
:103760007F5394BF002457F8044C8140EC4043F44D
:1037700040132143E0E744F07F5343F44013DBE779
:103780002DE97343012190469946089EFFF706FCF8
:10379000054630B9024640F20F31234B234801F071
:1037A00083F9C9F30A54C9F313030CB143F480132A
:1037B0000193B8F1000324D068460093FFF7FCFCA6
:1037C0000099E0B1019AC0F1200302FA03F30B4320
:1037D000C2406B610192019B002B0CBF01220222AF
:1037E000AB612A61ACB1A4F2334404443460C0F14B
:1037F0003500099B1860284602B0BDE870836961F6
:10380000E9E701A8FFF7D8FC019B01226B6120309A
:10381000E7E7A0F2324005EB820330601869FFF75A
:10382000ADFCC0EB4210E4E7C8A30008D9A3000830
:103830002DE9F34D0A4669468046FFF759FF8B464E
:1038400006460F46104601A9FFF752FF0D46D8F86D
:1038500010301269A3EB020CDDE900329B1A03EB76
:103860004C13002BD6BFC3EB033307EB035B01EB19
:10387000035502462B4630465946FCF741FF02B03D
:10388000BDE8F08D013970B549111469013102F1BB
:10389000140300EB810103EB8404051FA3420CD346
:1038A000A31A113B23F003031132944238BF0023C3
:1038B00018440023884205D370BD53F8046B45F8C3
:1038C000046FEBE740F8043BF4E700F114020069F1
:1038D0004B11984210B511DB0ADD11F01F0107D022
:1038E00052F8234024FA01F000FA01F18C420BD186
:1038F00002EB8303934203D8002010BD0346F7E791
:1039000053F8041D0029F5D00120F6E72DE9F04118
:103910000F469046FFF7CCFE04460D46B8F1000F67
:1039200011D0C7F30A53C3F16B03002B0BDD002446
:103930001B0503F17F5505F5401522462B46FCF784
:10394000B5FD04460D4620462946BDE8F08100003D
:103950002DE9F04F9DB0159200220E464FF0000861
:103960004FF000090490189217910A780D462B2AFF
:1039700001F101011CD00AD80D2A05D8082AF3D874
:1039800072B100230B9380E0202AEDD0F9E72D2AB5
:1039900010D10122691C17910B926A78002A35D147
:1039A000159B1796002B40F09085404649462AE02B
:1039B0000022EFE700210B91302A40F09B806A78CB
:1039C00002F0DF02582A58D102930B9B874A0193D9
:1039D00018AB0093049819AB17A901F0FDF810F08B
:1039E0000F04064605D0062C12D100230135179589
:1039F0000B93159B002B40F06A850B9B002BD4D0BA
:103A0000404609F100411DB0BDE8F08F0D46D3E7F7
:103A1000189A3AB135211AA8FFF734FF189904987B
:103A2000FFF7FAFA013C042C06D8DFE804F014038F
:103A30001E211400DDE91A89F10548BF49F000494B
:103A400029F000431B0D1B05002BD2D101F012F809
:103A500022230360CDE7199ADDE91A8302F233428B
:103A600023F4801343EA0259E6E7DFF88491E3E7A1
:103A70006FF000494FF0FF38DEE7013517952B78DE
:103A8000302BFAD0002BB4D001234FF0000A07935B
:103A90002846D3460A23CDF838A00478A4F1300292
:103AA000092A29D90122534900F0C1FF002836D044
:103AB0000020224601465C460690652A01D0452A30
:103AC00016D124B9079B03433FF46AAF0024179E25
:103AD000731C179372782B2A7FD02D2A00F08380D5
:103AE0004FF0000CA2F13003092B40F289801796A9
:103AF0000023A7E00023C8E7BBF1080FD6BF0E9A4A
:103B000003FB0A4203FB024200F10100DABF303A34
:103B10000E92A2F1300A0BF1010B1790BDE7179B33
:103B20005A1C17925A78BBF1000F3BD05C460690A6
:103B3000A2F13003092B11D90121BEE7179B0130F7
:103B40005A1C17925A78302AF8D0A2F13103082B68
:103B500000F2C284069000200446179D303A00F11E
:103B6000010319D0A4464FF00A0E06990594194492
:103B700006910CF10107391B8B4215DC059920EAEF
:103B8000E07001440134082904441CDC0A230E9926
:103B900003FB01230E930023179A1846511C17911B
:103BA0005278C5E75846CEE7BCF1080F05DC0E9900
:103BB0000EFB01F10E91BC46DBE70AFB0EFC102F59
:103BC000D8BFE246F7E70F29DCBF0A2303FB0A2A26
:103BD000E1E700230121069374E74FF0000CB31CCA
:103BE0001793B2787EE74FF0010CF8E71CA60008A7
:103BF0000000F07F33A40008179B5A1C17925A78D4
:103C0000302AF9D0A2F13103082B3FF671AF179B90
:103C1000A2F1300E0593013317931A78A2F1300701
:103C2000092F3BD9059FDB1B082B44F61F633BDCA8
:103C30009E457746A8BF1F460597BCF1000F02D0EE
:103C4000059B5B420593002C4FD1079B03437FF4F8
:103C5000D0AE00297FF4A4AE692A29D026DC492AF7
:103C600026D04E2A7FF49CAE9C4917A801F0D2F9C9
:103C700000283FF495AE179B1B78282B2FD198492D
:103C80001AAA17A801F0DBF9052828D11B9BDDF83B
:103C9000688043F0FF4949F4E009AAE60A2707FBD8
:103CA0000E27A7F1300EB6E70593C6E76E2AD9E7CF
:103CB0008C4917A801F0AEF900283FF471AE179BAC
:103CC0008949013B17A8179301F0A4F910B9179B74
:103CD000013317934FF00008DFF8109289E684480B
:103CE00000F0DCFE8046894683E6DDE90532BBF163
:103CF000000F08BFA3469B1A102C0E9826460A9365
:103D0000A8BF1026FCF758FB092C8046894611DC19
:103D10000A9B002B3FF46DAE0A9B6DDD162B54DC25
:103D20007449424601EBC3014B46D1E90001FCF75F
:103D3000BDFBD7E76F4B03EBC60353E91223FCF738
:103D4000B5FB804650468946FCF736FB02460B46DB
:103D500040464946FCF7F4F90F2C80468946D7DDEA
:103D60000A9BA4EB060A9A44BAF1000F40F3928032
:103D70002AF00F061AF00F0A4DD1B6F59A7F5ADCD9
:103D8000404600274946DFF870913611012E76D162
:103D9000A1F154795849024601EBC7014B46D1E9DC
:103DA0000001FCF783FB514B0A460B405349804608
:103DB0008B4240D8A1F580118B4286BF4FF0FF386F
:103DC000DFF83C9102F1547932E00A9AC4F12503FC
:103DD0009342C5DB474DC4F10F0405EBC4014246D5
:103DE000D1E900014B46FCF761FB0A9B1C1B05EB6C
:103DF000C405D5E900239AE71633B1DBDDE90523D5
:103E00009A1A3C4B404603EBC2034946D3E90023D0
:103E1000FCF776FC66E73749424601EBCA014B46A0
:103E2000D1E90001FCF742FB80468946002EA4D16F
:103E3000002307939AE0002405940E94069422230D
:103E40004FF00008049ADFF8A49013600E9B002B3B
:103E50003FF4CFAD18990498FFF7DEF8069904985F
:103E6000FFF7DAF8DDE90401FFF7D6F80E990498B8
:103E7000FFF7D2F821460498FFF7CEF8B9E5F2072C
:103E800003D5D9E90023FCF711FB0137761009F1BE
:103E900008097BE7CCD0CAF1000A4FEA2A161AF0CB
:103EA0000F0A0DD11F2E2DDD002405940E940694CB
:103EB0002223049A4FF000084FF000091360C5E771
:103EC0000C4B404603EBCA034946D3E90023FCF7F9
:103ED00017FC80468946002EAAD0E3E721A30008FC
:103EE00008A6000819A300084EA300080000F07FF0
:103EF00089A4000840A5000818A500080000A07CBF
:103F0000FFFFEF7F16F0100318BF6A2340464946B3
:103F1000764F0793F30703D5D7E90023FCF7C6FADA
:103F2000761007F10807F5D1079B80468946ABB1AB
:103F3000C1F30A52C2F16B03002B0F460EDD1F2B9B
:103F400057DD342BD8BF4FF0FF33B046CFBF4FF013
:103F50005C79C2F14B02934003EA0109002200237D
:103F600040464946FCF70AFD00289DD10E9B5A4663
:103F70000093294623460498FFF7B6F80E900028D0
:103F80003FF459AFDDE905239B1A0A9A0024002A61
:103F9000A8BF0023129322EAE273149305940E9BA8
:103FA00004985968FEF7FAFF069000283FF447AFDF
:103FB0000E9B0C301A6903F10C010232920000F0E2
:103FC0005FFD1AAB019319AB009342464B46049830
:103FD000CDE90C89FFF7D4FB189000283FF42FAFF0
:103FE00001210498FFF716F90346059040B905939F
:103FF00025E74FF0FF3202FA03F303EA0008ADE7CA
:10400000199D079A002DABBF129B149BEF185E1BE6
:104010001A9BA5EB02051D44354A05F1FF35ACBFDF
:10402000149E129F9542C3F1360352DA3149521B56
:104030008D42A3EB02034FF001013EDB4FF0000B7A
:1040400001FA02FAFD181E44079BAF421E443B468C
:10405000A8BF2B46B342A8BF3346002BC2BFED1A00
:10406000F61AFF1A129B002B18DDDDE904011A462F
:10407000FFF79CF9034605900028B8D00146189A2E
:104080000498FFF7DDF8034600283FF4D8AE1899EE
:1040900004980F93FEF7C0FF0F9B1893002D1BDCB5
:1040A0000A9B002B28DD149A06990498FFF77EF9E5
:1040B0000346069000BB0693C1E6C5F17F4505F5B2
:1040C0007F0505F57B45E23501FA05FB4FF0010A56
:1040D000B8E74FF0000BF9E72A4618990498FFF764
:1040E000C1F918900028DBD1A9E600BF30A600086E
:1040F00002FCFFFFE3FBFFFF002E08DD32460699BE
:104100000498FFF7AFF9034606900028D3D0002F9C
:1041100008DDDDE904013A46FFF7A4F9059000281F
:104120003FF48DAE069A18990498FFF729FA0446D1
:1041300000283FF484AEC36805990F930023C36041
:10414000FFF702FA00283CDA0F9B53EA08035FD11D
:10415000C9F313034D46002B5AD129F000431B0D20
:104160001B05B3F1D66F53D9636913B92369012BCA
:104170004EDD214601220498FFF774F905990446A3
:10418000FFF7E2F9002843DDA74B079A2B40002AEE
:1041900060D0B3F1D66F5DD8B3F15C7F7FF688AEA7
:1041A00040464946A14B0022FCF780F99E4B8046D1
:1041B0000B408946002B7FF44DAE2223049A1360F6
:1041C00048E64D4663D10F9AC9F313034AB3984AA0
:1041D000934229D1079B4146F3B1934B4FF0FF32F5
:1041E00009EA0303B3F1D46F19D81B0DC3F16B03B4
:1041F00002FA03F3994217D18E4B9D4202D101314D
:104200003FF41DAE4FF00008874B2B4003F580199B
:10421000079B002BC4D11DE64FF0FF33EAE713469E
:10422000E8E753EA0803AFD0BBF1000F1BD01BEA4D
:10423000050FEDD00F9B40464946079AB3B1FFF7F3
:1042400065FB02460B46DDE90C01FBF779FF804672
:104250008946DDE7A3F580136FEA13594FF0FF3865
:104260006FEA0959D4E71AEA080FE2E7FFF74EFBB5
:1042700002460B46DDE90C01FBF760FF002200233C
:1042800080468946FCF77AFB0028C1D010E620461C
:104290000599FFF7CDFA00224FF0804306460F46FE
:1042A000FCF780FB00286ED00F9B002B79D1B8F172
:1042B000000F54D1C9F31303002B56D1002230460E
:1042C00039465D4BFCF764FB002857D1002230468D
:1042D00039465A4BFCF7EAF882468B460BF100430D
:1042E000CDF820A00993504B4F4A2B401393544BC9
:1042F0002A409A42DDE9086740F0A880A5F1547988
:1043000040464946FFF7D4F9DDE90823FCF7CEF82B
:1043100042464B46FBF714FF434D4A4A0D40954237
:10432000804645D90D9A434B9A4203D10C9B0133E9
:104330003FF485AD4FF0FF38DFF8F89018990498F6
:10434000FEF76AFE06990498FEF766FEDDE90401B1
:10435000FEF762FE21460498FEF75EFE1FE6B8F106
:10436000010F02D1002D3FF4A3AD0022364B4FF0D8
:10437000000ACDE90823DFF8C0B0B4E74FF0000A27
:10438000DFF8B8B0AAE72D4B002230463946FCF7DB
:104390008DF80F9B82468B46002B9FD0CDE908AB52
:1043A000A1E70022244B92469B46CDE908239AE7D9
:1043B00001F15479079B002BC0D1139A29F00043D7
:1043C0001B0DB2EB035FB9D15046594605F090FA88
:1043D000FCF73EF802460B4650465946FBF7AEFE48
:1043E0000F9AC9F3130343EA0803134306460F4623
:1043F00065D009A3D3E90023FCF7CAFA00287FF4AB
:1044000029AD07A3D3E9002330463946FCF7DEFA8D
:10441000002893D01EE500BF9535A094FFFFDF3F35
:1044200035E5AF350000E03F0000F07F0000503977
:10443000FFFF0F00FFFFEF7F0000F03F0000E03FB5
:104440000000E07FFFFF9F7C0000F0BF079B13B3DD
:10445000139BB3F1D46F1ED825A3D3E90023504694
:104460005946FCF79FFA90B159465046FCF7F6FAC8
:10447000012838BF0120FBF79FFF0F9B82468B4628
:10448000D3B901F1004310901193DDE91067139A3D
:1044900007F1D6639F1ADDE90C01FFF709F902461F
:1044A0000B4630463946FCF701F8DDE90C23FBF7F3
:1044B00047FE804689467DE7CDE910ABE5E70EA3D0
:1044C000D3E90023FCF764FAA2E700230B93179BC0
:1044D000159A1360FFF791BA652A3FF47AAB452A23
:1044E0003FF477AB0121FFF7B0BB00BFAFF3008013
:1044F0000000C0FFFFFFDF419535A094FFFFCF3FD5
:10450000014BFFF725BA00BF5C000020242B2DE9EA
:10451000F047884601D8012B06D100F0ABFA1623EC
:1045200003600020BDE8F0870D46344E294615F89B
:10453000014B375D17F00807F8D12D2C10D101275A
:104540002C788D1C33F0100115D1302C0DD1297829
:1045500001F0DF01582908D16C78023510230AE0F8
:104560002B2C04BF2C788D1CECE7002BF6D1302CC3
:1045700014BF0A230823002107F1004E0EF1FF3E6D
:10458000BEFBF3F90E4603FB19EAA4F1300CBCF1B3
:10459000090F10D86446A3421EDDB1F1FF3F07D0DA
:1045A000B14516D301D1A24513DB012106FB034619
:1045B00015F8014BE9E7A4F1410CBCF1190F01D842
:1045C000373CE8E7A4F1610CBCF1190F04D8573C63
:1045D000E1E74FF0FF31EBE74B1C05D12223764694
:1045E000036032B930469DE707B17642002AF9D020
:1045F00009B105F1FF38C2F80080F3E759A60008B9
:10460000FFF784BF2DE9F0471F468E688246BE4201
:104610000C469046334653D8B1F90C0010F4906F15
:104620002BD065692368096905EB4505A3EB0109F2
:1046300005EBD5757B1C6D104B44AB422A4684BFFD
:104640001D462A46430527D511465046FEF71EFC57
:10465000064658B34A46216900F012FAA38923F4AA
:10466000906343F08003A38126614E4426603B465D
:104670003E466561A5EB0905A5601F463A464146E1
:10468000206800F0BBF90020A3689B1BA36023688F
:104690003B442360BDE8F087504600F07EFD0646AF
:1046A0000028E1D150462169FEF77CFB0C23CAF8B3
:1046B0000030A3894FF0FF3043F04003A381E9E7C6
:1046C0003E46DBE72DE9F0471F468B8906461B0671
:1046D0000D4614469CB010D50B6973B94021FEF706
:1046E000D5FB2860286130B90C2333604FF0FF30D0
:1046F0001CB0BDE8F08740236B61002309932023A1
:104700008DF8293030234FF001080397644F8DF85E
:104710002A3023461A7899461AB1252A03F1010353
:10472000F8D1B9EB040A0BD053462246294630464D
:10473000FFF768FF013000F0A380099A5244099204
:1047400099F80030002B00F09B8000224FF0FF33DF
:10475000CDE9053209F10109049207928DF8532041
:104760001A924C46052214F8011B4D48FDF7A1FC96
:10477000049AD0B9D00644BF20238DF853301107D6
:1047800044BF2B238DF8533099F800302A2B13D0D7
:104790004B4600204FF00A0C07991A781C46303A15
:1047A000092A4AD9A8B1079113E0C01B08FA00F002
:1047B0001043A1460490D4E7039B191D1B68039185
:1047C000002BBBBF5B4242F0020207930793B8BFC6
:1047D000049223782E2B0AD163782A2B32D1039BA3
:1047E00002341A1D1B68039243EAE3730593DFF852
:1047F000B490032248462178FDF75BFC38B1402293
:10480000049BA0EB090082401343013404932178F8
:10481000062225488DF82810FDF74BFC002835D0DE
:10482000224818BB039B073323F007030833039385
:10483000099B0134034409936BE701200CFB012120
:104840000133AAE700234FF00A0C18460593611CB8
:104850000A780C46303A092A03D9002BC7D00590B4
:10486000C5E701230CFB00200131F1E703AB009306
:104870002A4630460E4B04A9FCF7A2FC421CD7D1B5
:10488000AB895B063FF532AF099831E703AB009384
:104890002A463046064B04A9FCF732FFEEE700BF7C
:1048A00035A400083BA400083FA40008C11100087B
:1048B00005460008B1F90C20F8B5160705460C4668
:1048C00051D44B68002B02DC0B6C002B49DDE66AEF
:1048D000002E46D0002312F480522F682B6031D076
:1048E000626DA389590705D56368D21A636B0BB152
:1048F000236CD21A00232846E66A216AB047421C7C
:10490000B4F90C3006D129681D2944D8264ACA407A
:10491000D60740D5002262602269D904226004D5FE
:10492000421C01D12B6803B96065616B2F60C1B176
:1049300004F14403994202D02846FEF733FA0023DB
:1049400063630EE001232846216AB0470246501CEB
:10495000C7D12B68002BC4D01D2B01D0162B19D129
:104960002F6000201CE00F69002FFAD0930718BFBA
:1049700000230E6808BF4B69F61B0F608B60002E8A
:10498000EFDD33463A462846216AD4F828C0E0478E
:10499000002806DCA3894FF0FF3043F04003A381D9
:1049A000F8BD0744361AEAE70100402038B50B6924
:1049B00005460C4613B91D46284638BD18B1036A92
:1049C0000BB9FDF75FFAB4F90C30002BF3D0626E2F
:1049D000D00704D4990502D4A06DFDF768FB2846E2
:1049E0002146FFF767FF636E0546DA07E4D4A38923
:1049F0009B05E1D4A06DFDF75BFBDDE7884210B5B8
:104A000001EB020402D98442234607D8431EA14287
:104A100007D011F8012B03F8012FF8E70244824276
:104A200000D110BD13F8011D02F8011DF7E710B504
:104A30006AB101398418027811F8013F9A4204D111
:104A40000130A04201D0002AF5D1D01A10BD104685
:104A5000FCE7000038B50023054C054608462360F6
:104A600001F086F9431C02D1236803B12B6038BDE5
:104A700044030020014B1868704700BF0C00002061
:104A80000A44914200F1FF3300D1704710B511F88C
:104A9000014B914203F8014FF9D110BD00200149AB
:104AA000704700BF0000F87F1FB51D46094B064642
:104AB0001B68D86852B1084C3346CDE901420091D9
:104AC0002A46064900F0A4FB00F0B4FB044C224641
:104AD000F2E700BF0C0000204EA400085BA4000811
:104AE00089A4000870B5A1FB026535B93146FEF70F
:104AF000CDF9044628B9204670BD0C23002403607C
:104B0000F9E732462946FDF75BFAF4E703692DE938
:104B1000F043B3EB611F00F114044FEA611244DD6E
:104B200011F01F0104EB830C04EB82050CD1294624
:104B300000F11006614533D39B1A9B00033DAC4541
:104B400038BF0023234414E0A14654F82260C1F189
:104B50002008CE4005F1040EF44516D89A1A9200AA
:104B6000043A0135AC4538BF0022A318A65006B15F
:104B70000433A342A3EB040208BF00234FEAA202BE
:104B8000026108BF4361BDE8F083DEF8007007FAF8
:104B900008F7374349F8047B5EF8046BCE40DBE747
:104BA00051F8047B46F8047FC4E72346E1E7A0F10F
:104BB0003003092B02D82038C0B27047A0F161033E
:104BC000052B01D84738F7E7A0F14103052B01D8A1
:104BD0002738F1E7002070472DE9F04F0F46914646
:104BE00085B002930B6801909C1C2078A046302869
:104BF00004F10104F9D0A8EB0303A3F1020BFFF7C2
:104C0000D6FF8246002838D1012240469E49FFF750
:104C10000EFF0546002863D198F801002646FFF7ED
:104C2000C6FF00285ED02078A046302804F1010499
:104C3000F9D0FFF7BCFFB0FA80F435464FF0010B16
:104C40006409C246564630780AF1010AFFF7AFFF01
:104C50000028F7D1012230468B49FFF7E8FE78B9EA
:104C600045B95546564630780AF1010AFFF79FFFCD
:104C70000028F7D1AD1BAD0004E000242546E0E795
:104C8000002DF7D1337803F0DF03502B37D1737841
:104C90002B2B29D02D2B2BD04FF0000A711C08781C
:104CA000FFF785FF431EDBB2182B28D8A0F11002B6
:104CB00011F8010FFFF77BFF431EDBB2182B1AD947
:104CC000BAF1000F00D0524215443960CCB1BBF1AB
:104CD000000F0CBF06270027384605B0BDE8F08F4F
:104CE000464655460124CDE74FF0000AB11CD6E7F1
:104CF0004FF0010AFAE70A2303FB0200D6E7314628
:104D0000E3E72146A6EB0803013B072B0ADC0198E9
:104D1000FEF744F9044640B90246E4215B4B5C4887
:104D2000FFF7C2FE01315B10EFE7002300F1140A28
:104D300057469B46B04537D347F804BBA7EB0A0755
:104D4000BB1058462361FEF719FAD9F80060C0EB92
:104D5000C707B74254DDBF1B39462046FEF7B5FDF5
:104D6000804678B14FF001087B1E59115AF8211086
:104D700003F01F0208FA02F20A4203D0434536DC70
:104D80004FF0020839462046FFF7C0FE3D44D9F8EF
:104D90000830AB4242DA21460198FEF73DF9002384
:104DA0000E9AA327136097E716F8012D2E2A12D02A
:104DB000202B04D147F804BB4FF0000B5B46307842
:104DC0000393FFF7F4FE039B00F00F0098404BEABB
:104DD000000B0433AEE7B045EAD8012230462A4939
:104DE0000393FFF724FE039B0028E1D1A2E72046AE
:104DF000B91EFEF76AFD0028C2D04FF00308C1E7D4
:104E000009DAF71B21463A460198FEF72BFB0446C8
:104E1000ED1B00F1140A4FF00008B8E7D9F8043090
:104E2000AB426FDD5D1BAE4234DCD9F80C30022B97
:104E300022D0032B24D0012B15D1AE4213D1012E49
:104E40000BD1D9F80430029A622713600123236141
:104E5000CAF800300E9B1C603EE72046711EFEF72C
:104E600034FD0028EDD121460198FEF7D5F8002346
:104E70000E9A502713602FE70F9B002BF3D1E0E72A
:104E80000F9B002BDDD1EEE733A40008C8A3000878
:104E90008AA400086F1EB8F1000F30D127B139463F
:104EA0002046FEF712FD804601237A1107F01F0706
:104EB000BB4002275AF8222029461342204618BF39
:104EC00048F00208761BFFF721FED9F80450B8F12C
:104ED000000F42D0D9F80C30022B15D0032B17D07D
:104EE000012B09D118F0020F06D0DAF8003048EA99
:104EF000030818F0010F0ED147F010072DE04FF016
:104F00000108D1E70127E2E70F9BC3F101030F93EB
:104F10000F9B002BF0D00020D4F810A004F1140354
:104F200003EB8A011A68B2F1FF3F1BD001321A600D
:104F3000022F04F114033CD1D9F80020013AB24207
:104F400009D10122711153F8213006F01F0602FA2F
:104F500006F61E423AD147F020070E9B1C60029BCA
:104F60001D60B9E643F8040B9942DBD8A3689A4563
:104F700017DB616801980131FEF710F8804618B917
:104F800002468421194BCAE6226904F10C0102325F
:104F900092000C30FFF774FD21460198FEF73CF8B3
:104FA000444623695A1C2261012204EB83035A619F
:104FB000BEE7226952450BDD01212046FFF7A6FD21
:104FC000D9F808300135AB42FFF6E5AE0127C2E75C
:104FD00016F01F06FAD003EB8A0353F8040CFEF711
:104FE000CDF8C6F12006B042E6DBEFE7C8A3000823
:104FF000C2F10802920070B5C2F12006436804684D
:1050000003FA06F52C43D340046040F8043F88427D
:10501000F4D370BD30B503680139013311F8014F85
:1050200014B90360012030BD13F8012BA2F1410532
:10503000192D98BF2032A242F0D00020F3E72DE9CD
:10504000F04F00250B6890465E1102EB860613F0C8
:105050001F0318BF0436371FB9463C46AB46AA4665
:1050600087B002900193029B46F8045C19684A7865
:105070004B1C039332B3104605910492FFF797FD42
:10508000002851D1049A0599202A16D8DA4512DD54
:105090004C4506D2072D04DC2A4649462046FFF738
:1050A000A7FF444553D90023A4F1040944F8043C64
:1050B000D3464C461D460399D9E7292A59D1029B6C
:1050C00002311960BAF1000F53D04C4506D2072DBA
:1050D00004DC2A4649462046FFF78AFF444538D972
:1050E0002346A8F1040253F8041B9F4242F8041F10
:1050F000F9D23B1B23F003030134033EB44288BFC3
:105100000023002108F1040213441A4604339F428D
:105110001160FAD23B681BB9474528D101233B6097
:10512000052007B0BDE8F08F0135082D0AF1010A0E
:1051300006DD4445BFD90023012544F8043C043C66
:10514000226800F00F0040EA02102060B3E7082553
:10515000B1E7019B002BDDD04FF0FF32C3F12003FC
:10516000DA4056F8043C134046F8043CD2E7043FCA
:10517000D0E70420D5E782B001B901A942B14BB113
:1051800013780B601278101E18BF012002B0704710
:105190001046FBE76FF00100F8E72DE9F041074604
:1051A00015460C4621B91146BDE8F041FDF76EBE2B
:1051B0002AB9FDF7F7FD2C462046BDE8F08100F046
:1051C00040F88542064602D8B5EB500FF4D8294680
:1051D0003846FDF75BFE804608B94446ECE7B54229
:1051E0002A46214628BF3246FFF74AFC2146384668
:1051F000FDF7D8FDF1E749B1FF2A8BBF8A230120D3
:1052000003600A7088BF4FF0FF3070470846704750
:105210000EB403B5014603AB054853F8042B0068F0
:10522000019300F03DF802B05DF804EB03B0704765
:105230000C000020062008B500F000FA012000F064
:1052400067FD51F8043C181F002BBCBF0B58C01859
:105250007047936810B4013B002B936007DA9469A0
:10526000A34201DB0A2902D110BC00F02DB913685A
:10527000581C10601970084610BC7047F8B50646F7
:105280000F461446D518AC4201D1002007E03A463B
:10529000304614F8011BFFF7DCFF431CF3D1F8BDC7
:1052A0002DE9F04706460D4614461F469CB018B13E
:1052B000036A0BB9FCF7E6FD6B6ED90705D4AB8921
:1052C0009A0502D4A86DFCF7F2FEAB891B0701D545
:1052D0002B699BB92946304600F034F970B16B6EEA
:1052E000DE0704D54FF0FF301CB0BDE8F087AB8976
:1052F0009C05F7D4A86DFCF7DBFEF3E700230993C8
:1053000020238DF8293030234FF001080397694F8F
:105310008DF82A3023461A7899461AB1252A03F1C6
:105320000103F8D1B9EB040A0BD0534622462946B3
:105330003046FFF7A3FF013000F0A380099A5244E2
:10534000099299F80030002B00F09B8000224FF06A
:10535000FF33CDE9053209F10109049207928DF876
:1053600053201A924C46052214F8011B5148FCF7B1
:10537000A0FE049AD0B9D00644BF20238DF8533044
:10538000110744BF2B238DF8533099F800302A2B96
:1053900013D04B4600204FF00A0C07991A781C4690
:1053A000303A092A4AD9A8B1079113E0C01B08FA7C
:1053B00000F01043A1460490D4E7039B191D1B681D
:1053C0000391002BBBBF5B4242F00202079307939D
:1053D000B8BF049223782E2B0AD163782A2B32D1BE
:1053E000039B02341A1D1B68039243EAE37305937F
:1053F000DFF8C490032248462178FCF75AFE38B102
:105400004022049BA0EB0900824013430134049323
:105410002178062229488DF82810FCF74AFE00283A
:105420003ED0274818BB039B073323F007030833FC
:105430000393099B0134034409936BE701200CFBA0
:1054400001210133AAE700234FF00A0C1846059307
:10545000611C0A780C46303A092A03D9002BC7D0C0
:105460000590C5E701230CFB00200131F1E703ABF8
:1054700000932A463046134B04A9FBF7A1FE431CB8
:10548000D7D16B6ED90705D4AB899A0502D4A86D24
:10549000FCF70EFEAB895B063FF524AF099823E7C6
:1054A00003AB00932A463046064B04A9FCF728F9C3
:1054B000E5E700BF35A400083BA400083FA40008AE
:1054C000C11100087D520008F8B505460F46144684
:1054D00018B1036A0BB9FCF7D5FCA369A360A389D3
:1054E0001A0701D5236943B92146284600F02AF856
:1054F00018B14FF0FF363046F8BD23692068C01A56
:105500006369834205DC21462846FFF74FFA0028ED
:10551000EFD1A3680130013BA3602368FEB25A1C9F
:1055200022601F706369834204D0A389DB07E2D540
:105530000A2EE0D121462846FFF738FA0028DAD0B3
:10554000D7E7000038B5284B054618680C4618B157
:10555000036A0BB9FCF796FCB4F90C30190720D498
:10556000DA0607D409222A6043F040034FF0FF30E7
:10557000A38131E0580711D5616B41B104F14403B7
:10558000994202D02846FDF70DFC002363630022F8
:10559000A3896260226923F02403226043F0080398
:1055A000A38123694BB9A38903F42073B3F5007F6A
:1055B00003D02146284600F081F8B4F90C3013F0EE
:1055C00001020AD00022A26062695242A2612269ED
:1055D00042B913F08000C7D138BD990758BF62693E
:1055E000A260F4E70020F7E70C0000201F2938B57F
:1055F00005460C4604D9162303604FF0FF3038BD32
:10560000C26B12B152F821304BB9284600F030F885
:10561000224601462846BDE8384000F017B8012B65
:105620000AD0591C03D1162303600120E7E70021AB
:10563000204642F8241098470020E0E7024B01463C
:105640001868FFF7D3BF00BF0C00002038B5002357
:10565000064C054608461146236000F051FB431CEA
:1056600002D1236803B12B6038BD00BF4403002082
:1056700000F044BB70B50E46B1F90E101446002977
:105680001D4696B00ADAB28912F0800213D14FF4A7
:10569000806100202A60216016B070BD6A4600F06B
:1056A00047F80028EFDB019A02F47042A2F500539C
:1056B0005A425A41EBE700224021EAE78B8973B551
:1056C0009E0705460C4607D504F147032360236176
:1056D0000123636102B070BD01AB6A46FFF7CAFFE8
:1056E000009E28463146FDF7D1FBB4F90C3038B99D
:1056F0009A05EFD423F0030343F00203A381E3E709
:1057000043F08003A381019BC4E904062060002BC1
:10571000E0D02846B4F90E1000F01CF80028D9D0CB
:10572000A38923F0030343F00103A381D2E7000020
:1057300038B50023064C054608461146236000F0A4
:105740000EFB431C02D1236803B12B6038BD00BFA0
:105750004403002038B50023054C05460846236065
:1057600000F002FB431C02D1236803B12B6038BD5B
:105770004403002070B582B005460E4600900B4BE6
:10578000032222210A4801F085FB012409E056F892
:1057900024300093074B03222521054801F07AFBB2
:1057A0000134AC42F3DB002002B070BD5CA70008FE
:1057B00070A7000878A7000808B5034B03222E2124
:1057C000024801F067FB08BD80A7000870A7000829
:1057D00000B585B0029201910090044B032237215D
:1057E000034801F057FB002005B000BDA4A7000846
:1057F00070A7000808B5034B03226421024801F09A
:1058000049FB08BDCCA7000870A7000808B5034BEA
:105810000422A521024801F03DFB08BDDCA70008D9
:1058200070A700080000000070B588B00D46002485
:1058300007E055F82420134621461D4804F08EF851
:105840000134042CF5DD18A3D3E90023194804F032
:1058500085F8194E07AA3146686804F0EFF8174C2E
:1058600006AA2146A86804F0E9F805AA3146E868C6
:1058700004F0E4F804AA2146286904F0DFF8069849
:10588000FAF7BCFD04460D460498FAF7B7FDCDE9DA
:105890000201059B009322462B460799084804F015
:1058A0005DF8002008B070BD00000060666627400B
:1058B000ECA7000804A8000810A8000814A8000815
:1058C00018A8000808B501F04DFF034B1860034B02
:1058D00001221A7008BD00BF5C030020580300209D
:1058E000124B1B7803B9704700B58DB0EC46DFF85A
:1058F00040E0BEE80F00ACE80F00BEE80F00ACE8E7
:105900000F009EE80F00ACE807002CF8023B1B0CD0
:105910008CF800306846FAF7FBFB02466946054BF7
:10592000186802F037FE0DB000BD00BF580300201C
:105930002CA800085C03002008B5054B00220121BB
:10594000044803F05FFF4FF47A7103F0AFFF08BD26
:10595000D8AB00080D58000870B588B005460E4653
:1059600014461846FAF74AFDCDE90601049430467C
:10597000FAF744FDCDE902010095044B03224021D2
:10598000034801F087FA08B070BD00BF18A80008EE
:1059900070A7000808B5FFF7DFFF002008BD08B5B5
:1059A00001F0BAFBFEE7FEE7FEE7FEE7FEE7FEE7F3
:1059B0007047000082B00E4B9A6942F001029A6172
:1059C0009A6902F001020092009ADA6942F080526C
:1059D000DA61DB6903F080530193019B054A536848
:1059E00023F0E06343F00073536002B0704700BFE0
:1059F000001002400000014008B50548054B436611
:105A0000054B83664FF40072044902F03FFB08BD6A
:105A100068050020C15C0008555C00086803002090
:105A20000B4B5B6E93B100B583B001210DF1070004
:105A30009847012808D19DF80710054802F040FD5D
:105A4000034B5B6E002BF0D103B000BD704700BF6D
:105A50006805002072B6FEE710B590B006AC2822AB
:105A600000212046FCF7ACFA002301930293039334
:105A7000049305930223069301220A9210220B92AB
:105A80000D934FF460130F93204600F0CBFE70B9D6
:105A90000F2301930221029103904FF4806204923C
:105AA000059001A801F0F2F818B910B010BDFFF789
:105AB000D1FFFFF7CFFF000008B500F0A5F9FFF711
:105AC000CBFF4FF4E13000F095F8024803F0AEFF51
:105AD00008BD00BF80A8000808B500F0A7F908BD00
